{
  "_format": "hh-sol-artifact-1",
  "contractName": "EtherFavoriteSongs",
  "sourceName": "contracts/WavePortal.sol",
  "abi": [
    {
      "inputs": [],
      "stateMutability": "nonpayable",
      "type": "constructor"
    },
    {
      "inputs": [
        {
          "internalType": "string",
          "name": "url",
          "type": "string"
        }
      ],
      "name": "addSong",
      "outputs": [],
      "stateMutability": "nonpayable",
      "type": "function"
    },
    {
      "inputs": [],
      "name": "getTotalSongs",
      "outputs": [
        {
          "internalType": "uint256",
          "name": "",
          "type": "uint256"
        }
      ],
      "stateMutability": "view",
      "type": "function"
    },
    {
      "inputs": [
        {
          "internalType": "address",
          "name": "",
          "type": "address"
        }
      ],
      "name": "songsToContributor",
      "outputs": [
        {
          "internalType": "string",
          "name": "",
          "type": "string"
        }
      ],
      "stateMutability": "view",
      "type": "function"
    }
  ],
  "bytecode": "0x608060405234801561001057600080fd5b506100596040518060400160405280601d81526020017f536d61727420636f6e747261637420686572652c206d6f7665206f757400000081525061005e60201b6102a01760201c565b6101e1565b6100fa81604051602401610072919061015f565b6040516020818303038152906040527f41304fac000000000000000000000000000000000000000000000000000000007bffffffffffffffffffffffffffffffffffffffffffffffffffffffff19166020820180517bffffffffffffffffffffffffffffffffffffffffffffffffffffffff83818316178352505050506100fd60201b60201c565b50565b60008151905060006a636f6e736f6c652e6c6f679050602083016000808483855afa5050505050565b600061013182610181565b61013b818561018c565b935061014b81856020860161019d565b610154816101d0565b840191505092915050565b600060208201905081810360008301526101798184610126565b905092915050565b600081519050919050565b600082825260208201905092915050565b60005b838110156101bb5780820151818401526020810190506101a0565b838111156101ca576000848401525b50505050565b6000601f19601f8301169050919050565b610a0d806101f06000396000f3fe608060405234801561001057600080fd5b50600436106100415760003560e01c80637f590f5e146100465780638c9db2b4146100625780639af4c55d14610080575b600080fd5b610060600480360381019061005b91906105e6565b6100b0565b005b61006a6101b5565b6040516100779190610715565b60405180910390f35b61009a600480360381019061009591906105bd565b610200565b6040516100a7919061067e565b60405180910390f35b60016000808282546100c291906107a2565b9250508190555080600160003373ffffffffffffffffffffffffffffffffffffffff1673ffffffffffffffffffffffffffffffffffffffff168152602001908152602001600020908051906020019061011c92919061049d565b50600260003373ffffffffffffffffffffffffffffffffffffffff1673ffffffffffffffffffffffffffffffffffffffff168152602001908152602001600020600081548092919061016d906108d9565b91905055506101b26040518060400160405280601581526020017f25732061646465642074686520257320736f6e672100000000000000000000008152503383610339565b50565b60006101f86040518060400160405280601781526020017f5765206861766520256420746f74616c20736f6e6773210000000000000000008152506000546103d8565b600054905090565b6001602052806000526040600020600091509050805461021f90610876565b80601f016020809104026020016040519081016040528092919081815260200182805461024b90610876565b80156102985780601f1061026d57610100808354040283529160200191610298565b820191906000526020600020905b81548152906001019060200180831161027b57829003601f168201915b505050505081565b610336816040516024016102b4919061067e565b6040516020818303038152906040527f41304fac000000000000000000000000000000000000000000000000000000007bffffffffffffffffffffffffffffffffffffffffffffffffffffffff19166020820180517bffffffffffffffffffffffffffffffffffffffffffffffffffffffff8381831617835250505050610474565b50565b6103d3838383604051602401610351939291906106a0565b6040516020818303038152906040527fe0e9ad4f000000000000000000000000000000000000000000000000000000007bffffffffffffffffffffffffffffffffffffffffffffffffffffffff19166020820180517bffffffffffffffffffffffffffffffffffffffffffffffffffffffff8381831617835250505050610474565b505050565b61047082826040516024016103ee9291906106e5565b6040516020818303038152906040527f9710a9d0000000000000000000000000000000000000000000000000000000007bffffffffffffffffffffffffffffffffffffffffffffffffffffffff19166020820180517bffffffffffffffffffffffffffffffffffffffffffffffffffffffff8381831617835250505050610474565b5050565b60008151905060006a636f6e736f6c652e6c6f679050602083016000808483855afa5050505050565b8280546104a990610876565b90600052602060002090601f0160209004810192826104cb5760008555610512565b82601f106104e457805160ff1916838001178555610512565b82800160010185558215610512579182015b828111156105115782518255916020019190600101906104f6565b5b50905061051f9190610523565b5090565b5b8082111561053c576000816000905550600101610524565b5090565b600061055361054e84610755565b610730565b90508281526020810184848401111561056b57600080fd5b610576848285610834565b509392505050565b60008135905061058d816109c0565b92915050565b600082601f8301126105a457600080fd5b81356105b4848260208601610540565b91505092915050565b6000602082840312156105cf57600080fd5b60006105dd8482850161057e565b91505092915050565b6000602082840312156105f857600080fd5b600082013567ffffffffffffffff81111561061257600080fd5b61061e84828501610593565b91505092915050565b610630816107f8565b82525050565b600061064182610786565b61064b8185610791565b935061065b818560208601610843565b610664816109af565b840191505092915050565b6106788161082a565b82525050565b600060208201905081810360008301526106988184610636565b905092915050565b600060608201905081810360008301526106ba8186610636565b90506106c96020830185610627565b81810360408301526106db8184610636565b9050949350505050565b600060408201905081810360008301526106ff8185610636565b905061070e602083018461066f565b9392505050565b600060208201905061072a600083018461066f565b92915050565b600061073a61074b565b905061074682826108a8565b919050565b6000604051905090565b600067ffffffffffffffff8211156107705761076f610980565b5b610779826109af565b9050602081019050919050565b600081519050919050565b600082825260208201905092915050565b60006107ad8261082a565b91506107b88361082a565b9250827fffffffffffffffffffffffffffffffffffffffffffffffffffffffffffffffff038211156107ed576107ec610922565b5b828201905092915050565b60006108038261080a565b9050919050565b600073ffffffffffffffffffffffffffffffffffffffff82169050919050565b6000819050919050565b82818337600083830152505050565b60005b83811015610861578082015181840152602081019050610846565b83811115610870576000848401525b50505050565b6000600282049050600182168061088e57607f821691505b602082108114156108a2576108a1610951565b5b50919050565b6108b1826109af565b810181811067ffffffffffffffff821117156108d0576108cf610980565b5b80604052505050565b60006108e48261082a565b91507fffffffffffffffffffffffffffffffffffffffffffffffffffffffffffffffff82141561091757610916610922565b5b600182019050919050565b7f4e487b7100000000000000000000000000000000000000000000000000000000600052601160045260246000fd5b7f4e487b7100000000000000000000000000000000000000000000000000000000600052602260045260246000fd5b7f4e487b7100000000000000000000000000000000000000000000000000000000600052604160045260246000fd5b6000601f19601f8301169050919050565b6109c9816107f8565b81146109d457600080fd5b5056fea264697066735822122049d0375cd70763d325b6d183edcfea19c418952aef3021ef0a862704f852989764736f6c63430008040033",
  "linkReferences": {},
  "deployedLinkReferences": {}
}